{
  "contractName": "CoinvestingDeFiToken",
  "abi": [
    {
      "inputs": [
        {
          "internalType": "string",
          "name": "name",
          "type": "string"
        },
        {
          "internalType": "string",
          "name": "symbol",
          "type": "string"
        },
        {
          "internalType": "uint256",
          "name": "_initialSupply",
          "type": "uint256"
        },
        {
          "internalType": "address",
          "name": "_saleReserve",
          "type": "address"
        },
        {
          "internalType": "address",
          "name": "_technicalAndOperationalReserve",
          "type": "address"
        }
      ],
      "stateMutability": "payable",
      "type": "constructor"
    },
    {
      "anonymous": false,
      "inputs": [
        {
          "indexed": true,
          "internalType": "address",
          "name": "owner",
          "type": "address"
        },
        {
          "indexed": true,
          "internalType": "address",
          "name": "spender",
          "type": "address"
        },
        {
          "indexed": false,
          "internalType": "uint256",
          "name": "value",
          "type": "uint256"
        }
      ],
      "name": "Approval",
      "type": "event"
    },
    {
      "anonymous": false,
      "inputs": [],
      "name": "MintFinished",
      "type": "event"
    },
    {
      "anonymous": false,
      "inputs": [
        {
          "indexed": true,
          "internalType": "address",
          "name": "previousOwner",
          "type": "address"
        },
        {
          "indexed": true,
          "internalType": "address",
          "name": "newOwner",
          "type": "address"
        }
      ],
      "name": "OwnershipTransferred",
      "type": "event"
    },
    {
      "anonymous": false,
      "inputs": [
        {
          "indexed": false,
          "internalType": "address",
          "name": "",
          "type": "address"
        },
        {
          "indexed": false,
          "internalType": "uint256",
          "name": "",
          "type": "uint256"
        }
      ],
      "name": "Received",
      "type": "event"
    },
    {
      "anonymous": false,
      "inputs": [
        {
          "indexed": true,
          "internalType": "address",
          "name": "from",
          "type": "address"
        },
        {
          "indexed": true,
          "internalType": "address",
          "name": "to",
          "type": "address"
        },
        {
          "indexed": false,
          "internalType": "uint256",
          "name": "value",
          "type": "uint256"
        }
      ],
      "name": "Transfer",
      "type": "event"
    },
    {
      "inputs": [
        {
          "internalType": "address",
          "name": "owner",
          "type": "address"
        },
        {
          "internalType": "address",
          "name": "spender",
          "type": "address"
        }
      ],
      "name": "allowance",
      "outputs": [
        {
          "internalType": "uint256",
          "name": "",
          "type": "uint256"
        }
      ],
      "stateMutability": "view",
      "type": "function"
    },
    {
      "inputs": [
        {
          "internalType": "address",
          "name": "spender",
          "type": "address"
        },
        {
          "internalType": "uint256",
          "name": "amount",
          "type": "uint256"
        }
      ],
      "name": "approve",
      "outputs": [
        {
          "internalType": "bool",
          "name": "",
          "type": "bool"
        }
      ],
      "stateMutability": "nonpayable",
      "type": "function"
    },
    {
      "inputs": [
        {
          "internalType": "address",
          "name": "account",
          "type": "address"
        }
      ],
      "name": "balanceOf",
      "outputs": [
        {
          "internalType": "uint256",
          "name": "",
          "type": "uint256"
        }
      ],
      "stateMutability": "view",
      "type": "function"
    },
    {
      "inputs": [],
      "name": "decimals",
      "outputs": [
        {
          "internalType": "uint8",
          "name": "",
          "type": "uint8"
        }
      ],
      "stateMutability": "view",
      "type": "function"
    },
    {
      "inputs": [
        {
          "internalType": "address",
          "name": "spender",
          "type": "address"
        },
        {
          "internalType": "uint256",
          "name": "subtractedValue",
          "type": "uint256"
        }
      ],
      "name": "decreaseAllowance",
      "outputs": [
        {
          "internalType": "bool",
          "name": "",
          "type": "bool"
        }
      ],
      "stateMutability": "nonpayable",
      "type": "function"
    },
    {
      "inputs": [
        {
          "internalType": "address",
          "name": "spender",
          "type": "address"
        },
        {
          "internalType": "uint256",
          "name": "addedValue",
          "type": "uint256"
        }
      ],
      "name": "increaseAllowance",
      "outputs": [
        {
          "internalType": "bool",
          "name": "",
          "type": "bool"
        }
      ],
      "stateMutability": "nonpayable",
      "type": "function"
    },
    {
      "inputs": [],
      "name": "name",
      "outputs": [
        {
          "internalType": "string",
          "name": "",
          "type": "string"
        }
      ],
      "stateMutability": "view",
      "type": "function"
    },
    {
      "inputs": [],
      "name": "owner",
      "outputs": [
        {
          "internalType": "address",
          "name": "",
          "type": "address"
        }
      ],
      "stateMutability": "view",
      "type": "function"
    },
    {
      "inputs": [],
      "name": "renounceOwnership",
      "outputs": [],
      "stateMutability": "nonpayable",
      "type": "function"
    },
    {
      "inputs": [],
      "name": "saleReserve",
      "outputs": [
        {
          "internalType": "address",
          "name": "",
          "type": "address"
        }
      ],
      "stateMutability": "view",
      "type": "function"
    },
    {
      "inputs": [],
      "name": "symbol",
      "outputs": [
        {
          "internalType": "string",
          "name": "",
          "type": "string"
        }
      ],
      "stateMutability": "view",
      "type": "function"
    },
    {
      "inputs": [],
      "name": "technicalAndOperationalReserve",
      "outputs": [
        {
          "internalType": "address",
          "name": "",
          "type": "address"
        }
      ],
      "stateMutability": "view",
      "type": "function"
    },
    {
      "inputs": [],
      "name": "totalSupply",
      "outputs": [
        {
          "internalType": "uint256",
          "name": "",
          "type": "uint256"
        }
      ],
      "stateMutability": "view",
      "type": "function"
    },
    {
      "inputs": [
        {
          "internalType": "address",
          "name": "recipient",
          "type": "address"
        },
        {
          "internalType": "uint256",
          "name": "amount",
          "type": "uint256"
        }
      ],
      "name": "transfer",
      "outputs": [
        {
          "internalType": "bool",
          "name": "",
          "type": "bool"
        }
      ],
      "stateMutability": "nonpayable",
      "type": "function"
    },
    {
      "inputs": [
        {
          "internalType": "address",
          "name": "sender",
          "type": "address"
        },
        {
          "internalType": "address",
          "name": "recipient",
          "type": "address"
        },
        {
          "internalType": "uint256",
          "name": "amount",
          "type": "uint256"
        }
      ],
      "name": "transferFrom",
      "outputs": [
        {
          "internalType": "bool",
          "name": "",
          "type": "bool"
        }
      ],
      "stateMutability": "nonpayable",
      "type": "function"
    },
    {
      "inputs": [
        {
          "internalType": "address",
          "name": "newOwner",
          "type": "address"
        }
      ],
      "name": "transferOwnership",
      "outputs": [],
      "stateMutability": "nonpayable",
      "type": "function"
    },
    {
      "stateMutability": "payable",
      "type": "receive"
    },
    {
      "inputs": [],
      "name": "withdraw",
      "outputs": [],
      "stateMutability": "nonpayable",
      "type": "function"
    },
    {
      "inputs": [
        {
          "internalType": "address",
          "name": "account",
          "type": "address"
        },
        {
          "internalType": "uint256",
          "name": "amount",
          "type": "uint256"
        }
      ],
      "name": "mint",
      "outputs": [],
      "stateMutability": "nonpayable",
      "type": "function"
    }
  ],
  "bytecode": "0x608060405260008060146101000a81548160ff02191690831515021790555060405162002b5838038062002b588339818101604052810190620000439190620006f7565b8484600062000057620002f860201b60201c565b9050806000806101000a81548173ffffffffffffffffffffffffffffffffffffffff021916908373ffffffffffffffffffffffffffffffffffffffff1602179055508073ffffffffffffffffffffffffffffffffffffffff16600073ffffffffffffffffffffffffffffffffffffffff167f8be0079c531659141344cd1fd0a4f28419497f9722a3daafe3b4186f6b6457e060405160405180910390a35081600490805190602001906200010d929190620005a7565b50806005908051906020019062000126929190620005a7565b506012600660006101000a81548160ff021916908360ff160217905550505081600660016101000a81548173ffffffffffffffffffffffffffffffffffffffff021916908373ffffffffffffffffffffffffffffffffffffffff16021790555080600760006101000a81548173ffffffffffffffffffffffffffffffffffffffff021916908373ffffffffffffffffffffffffffffffffffffffff1602179055506000831115620002ed576000600a84620001e2919062000b43565b1462000225576040517f08c379a00000000000000000000000000000000000000000000000000000000081526004016200021c9062000858565b60405180910390fd5b6000606460558562000238919062000a02565b620002449190620009ca565b905060006064600f8662000259919062000a02565b620002659190620009ca565b90506200029b600660019054906101000a900473ffffffffffffffffffffffffffffffffffffffff16826200030060201b60201c565b620002cf600760009054906101000a900473ffffffffffffffffffffffffffffffffffffffff16836200030060201b60201c565b6001600060146101000a81548160ff02191690831515021790555050505b505050505062000d92565b600033905090565b62000310620002f860201b60201c565b73ffffffffffffffffffffffffffffffffffffffff1660008054906101000a900473ffffffffffffffffffffffffffffffffffffffff1673ffffffffffffffffffffffffffffffffffffffff1614620003a0576040517f08c379a000000000000000000000000000000000000000000000000000000000815260040162000397906200089c565b60405180910390fd5b600060149054906101000a900460ff1615620003f3576040517f08c379a0000000000000000000000000000000000000000000000000000000008152600401620003ea906200087a565b60405180910390fd5b6200040582826200040960201b60201c565b5050565b600073ffffffffffffffffffffffffffffffffffffffff168273ffffffffffffffffffffffffffffffffffffffff1614156200047c576040517f08c379a00000000000000000000000000000000000000000000000000000000081526004016200047390620008be565b60405180910390fd5b6200049060008383620005a260201b60201c565b80600354620004a091906200096d565b60038190555080600160008473ffffffffffffffffffffffffffffffffffffffff1673ffffffffffffffffffffffffffffffffffffffff16815260200190815260200160002054620004f391906200096d565b600160008473ffffffffffffffffffffffffffffffffffffffff1673ffffffffffffffffffffffffffffffffffffffff168152602001908152602001600020819055508173ffffffffffffffffffffffffffffffffffffffff16600073ffffffffffffffffffffffffffffffffffffffff167fddf252ad1be2c89b69c2b068fc378daa952ba7f163c4a11628f55a4df523b3ef83604051620005969190620008e0565b60405180910390a35050565b505050565b828054620005b59062000ad7565b90600052602060002090601f016020900481019282620005d9576000855562000625565b82601f10620005f457805160ff191683800117855562000625565b8280016001018555821562000625579182015b828111156200062457825182559160200191906001019062000607565b5b50905062000634919062000638565b5090565b5b808211156200065357600081600090555060010162000639565b5090565b60006200066e620006688462000926565b620008fd565b9050828152602081018484840111156200068757600080fd5b6200069484828562000aa1565b509392505050565b600081519050620006ad8162000d5e565b92915050565b600082601f830112620006c557600080fd5b8151620006d784826020860162000657565b91505092915050565b600081519050620006f18162000d78565b92915050565b600080600080600060a086880312156200071057600080fd5b600086015167ffffffffffffffff8111156200072b57600080fd5b6200073988828901620006b3565b955050602086015167ffffffffffffffff8111156200075757600080fd5b6200076588828901620006b3565b94505060406200077888828901620006e0565b93505060606200078b888289016200069c565b92505060806200079e888289016200069c565b9150509295509295909350565b6000620007ba602a836200095c565b9150620007c78262000c48565b604082019050919050565b6000620007e16023836200095c565b9150620007ee8262000c97565b604082019050919050565b600062000808601c836200095c565b9150620008158262000ce6565b602082019050919050565b60006200082f6025836200095c565b91506200083c8262000d0f565b604082019050919050565b620008528162000a97565b82525050565b600060208201905081810360008301526200087381620007ab565b9050919050565b600060208201905081810360008301526200089581620007d2565b9050919050565b60006020820190508181036000830152620008b781620007f9565b9050919050565b60006020820190508181036000830152620008d98162000820565b9050919050565b6000602082019050620008f7600083018462000847565b92915050565b6000620009096200091c565b905062000917828262000b0d565b919050565b6000604051905090565b600067ffffffffffffffff82111562000944576200094362000c08565b5b6200094f8262000c37565b9050602081019050919050565b600082825260208201905092915050565b60006200097a8262000a97565b9150620009878362000a97565b9250827fffffffffffffffffffffffffffffffffffffffffffffffffffffffffffffffff03821115620009bf57620009be62000b7b565b5b828201905092915050565b6000620009d78262000a97565b9150620009e48362000a97565b925082620009f757620009f662000baa565b5b828204905092915050565b600062000a0f8262000a97565b915062000a1c8362000a97565b9250817fffffffffffffffffffffffffffffffffffffffffffffffffffffffffffffffff048311821515161562000a585762000a5762000b7b565b5b828202905092915050565b600062000a708262000a77565b9050919050565b600073ffffffffffffffffffffffffffffffffffffffff82169050919050565b6000819050919050565b60005b8381101562000ac157808201518184015260208101905062000aa4565b8381111562000ad1576000848401525b50505050565b6000600282049050600182168062000af057607f821691505b6020821081141562000b075762000b0662000bd9565b5b50919050565b62000b188262000c37565b810181811067ffffffffffffffff8211171562000b3a5762000b3962000c08565b5b80604052505050565b600062000b508262000a97565b915062000b5d8362000a97565b92508262000b705762000b6f62000baa565b5b828206905092915050565b7f4e487b7100000000000000000000000000000000000000000000000000000000600052601160045260246000fd5b7f4e487b7100000000000000000000000000000000000000000000000000000000600052601260045260246000fd5b7f4e487b7100000000000000000000000000000000000000000000000000000000600052602260045260246000fd5b7f4e487b7100000000000000000000000000000000000000000000000000000000600052604160045260246000fd5b6000601f19601f8301169050919050565b7f5f696e697469616c537570706c792068617320746f2062652061206d756c746960008201527f706c65206f662031302100000000000000000000000000000000000000000000602082015250565b7f4372656174696e67206e657720746f6b656e73206973206e6f7420616c6c6f7760008201527f65642e0000000000000000000000000000000000000000000000000000000000602082015250565b7f5468652063616c6c6572206973206e6f7420746865206f776e65722e00000000600082015250565b7f4d696e7420746f20746865207a65726f2061646472657373206e6f7420616c6c60008201527f6f7765642e000000000000000000000000000000000000000000000000000000602082015250565b62000d698162000a63565b811462000d7557600080fd5b50565b62000d838162000a97565b811462000d8f57600080fd5b50565b611db68062000da26000396000f3fe60806040526004361061010d5760003560e01c806365d814431161009557806395d89b411161006457806395d89b411461039f578063a457c2d7146103ca578063a9059cbb14610407578063dd62ed3e14610444578063f2fde38b146104815761014d565b806365d81443146102f557806370a0823114610320578063715018a61461035d5780638da5cb5b146103745761014d565b8063264897ec116100dc578063264897ec14610222578063313ce5671461024d57806339509351146102785780633ccfd60b146102b557806340c10f19146102cc5761014d565b806306fdde0314610152578063095ea7b31461017d57806318160ddd146101ba57806323b872dd146101e55761014d565b3661014d577f88a5966d370b9919b20f3e2c13ff65706f196a4e32cc2c12bf57088f885258743334604051610143929190611772565b60405180910390a1005b600080fd5b34801561015e57600080fd5b506101676104aa565b60405161017491906117b6565b60405180910390f35b34801561018957600080fd5b506101a4600480360381019061019f919061156b565b61053c565b6040516101b1919061179b565b60405180910390f35b3480156101c657600080fd5b506101cf61055a565b6040516101dc91906118f8565b60405180910390f35b3480156101f157600080fd5b5061020c6004803603810190610207919061151c565b610564565b604051610219919061179b565b60405180910390f35b34801561022e57600080fd5b5061023761061c565b6040516102449190611757565b60405180910390f35b34801561025957600080fd5b50610262610642565b60405161026f9190611913565b60405180910390f35b34801561028457600080fd5b5061029f600480360381019061029a919061156b565b610659565b6040516102ac919061179b565b60405180910390f35b3480156102c157600080fd5b506102ca610705565b005b3480156102d857600080fd5b506102f360048036038101906102ee919061156b565b610839565b005b34801561030157600080fd5b5061030a61092c565b6040516103179190611757565b60405180910390f35b34801561032c57600080fd5b50610347600480360381019061034291906114b7565b610952565b60405161035491906118f8565b60405180910390f35b34801561036957600080fd5b5061037261099b565b005b34801561038057600080fd5b50610389610aee565b6040516103969190611757565b60405180910390f35b3480156103ab57600080fd5b506103b4610b17565b6040516103c191906117b6565b60405180910390f35b3480156103d657600080fd5b506103f160048036038101906103ec919061156b565b610ba9565b6040516103fe919061179b565b60405180910390f35b34801561041357600080fd5b5061042e6004803603810190610429919061156b565b610c55565b60405161043b919061179b565b60405180910390f35b34801561045057600080fd5b5061046b600480360381019061046691906114e0565b610c73565b60405161047891906118f8565b60405180910390f35b34801561048d57600080fd5b506104a860048036038101906104a391906114b7565b610cfa565b005b6060600480546104b990611a5c565b80601f01602080910402602001604051908101604052809291908181526020018280546104e590611a5c565b80156105325780601f1061050757610100808354040283529160200191610532565b820191906000526020600020905b81548152906001019060200180831161051557829003601f168201915b5050505050905090565b6000610550610549610ebc565b8484610ec4565b6001905092915050565b6000600354905090565b600061057184848461108f565b6106118461057d610ebc565b84600260008973ffffffffffffffffffffffffffffffffffffffff1673ffffffffffffffffffffffffffffffffffffffff16815260200190815260200160002060006105c7610ebc565b73ffffffffffffffffffffffffffffffffffffffff1673ffffffffffffffffffffffffffffffffffffffff1681526020019081526020016000205461060c91906119a0565b610ec4565b600190509392505050565b600760009054906101000a900473ffffffffffffffffffffffffffffffffffffffff1681565b6000600660009054906101000a900460ff16905090565b60006106fb610666610ebc565b848460026000610674610ebc565b73ffffffffffffffffffffffffffffffffffffffff1673ffffffffffffffffffffffffffffffffffffffff16815260200190815260200160002060008873ffffffffffffffffffffffffffffffffffffffff1673ffffffffffffffffffffffffffffffffffffffff168152602001908152602001600020546106f6919061194a565b610ec4565b6001905092915050565b61070d610ebc565b73ffffffffffffffffffffffffffffffffffffffff1660008054906101000a900473ffffffffffffffffffffffffffffffffffffffff1673ffffffffffffffffffffffffffffffffffffffff161461079a576040517f08c379a000000000000000000000000000000000000000000000000000000000815260040161079190611878565b60405180910390fd5b600047116107dd576040517f08c379a00000000000000000000000000000000000000000000000000000000081526004016107d490611858565b60405180910390fd5b600047905080476107ee91906119a0565b503373ffffffffffffffffffffffffffffffffffffffff166108fc829081150290604051600060405180830381858888f19350505050158015610835573d6000803e3d6000fd5b5050565b610841610ebc565b73ffffffffffffffffffffffffffffffffffffffff1660008054906101000a900473ffffffffffffffffffffffffffffffffffffffff1673ffffffffffffffffffffffffffffffffffffffff16146108ce576040517f08c379a00000000000000000000000000000000000000000000000000000000081526004016108c590611878565b60405180910390fd5b600060149054906101000a900460ff161561091e576040517f08c379a000000000000000000000000000000000000000000000000000000000815260040161091590611838565b60405180910390fd5b6109288282611300565b5050565b600660019054906101000a900473ffffffffffffffffffffffffffffffffffffffff1681565b6000600160008373ffffffffffffffffffffffffffffffffffffffff1673ffffffffffffffffffffffffffffffffffffffff168152602001908152602001600020549050919050565b6109a3610ebc565b73ffffffffffffffffffffffffffffffffffffffff1660008054906101000a900473ffffffffffffffffffffffffffffffffffffffff1673ffffffffffffffffffffffffffffffffffffffff1614610a30576040517f08c379a0000000000000000000000000000000000000000000000000000000008152600401610a2790611878565b60405180910390fd5b600073ffffffffffffffffffffffffffffffffffffffff1660008054906101000a900473ffffffffffffffffffffffffffffffffffffffff1673ffffffffffffffffffffffffffffffffffffffff167f8be0079c531659141344cd1fd0a4f28419497f9722a3daafe3b4186f6b6457e060405160405180910390a360008060006101000a81548173ffffffffffffffffffffffffffffffffffffffff021916908373ffffffffffffffffffffffffffffffffffffffff160217905550565b60008060009054906101000a900473ffffffffffffffffffffffffffffffffffffffff16905090565b606060058054610b2690611a5c565b80601f0160208091040260200160405190810160405280929190818152602001828054610b5290611a5c565b8015610b9f5780601f10610b7457610100808354040283529160200191610b9f565b820191906000526020600020905b815481529060010190602001808311610b8257829003601f168201915b5050505050905090565b6000610c4b610bb6610ebc565b848460026000610bc4610ebc565b73ffffffffffffffffffffffffffffffffffffffff1673ffffffffffffffffffffffffffffffffffffffff16815260200190815260200160002060008873ffffffffffffffffffffffffffffffffffffffff1673ffffffffffffffffffffffffffffffffffffffff16815260200190815260200160002054610c4691906119a0565b610ec4565b6001905092915050565b6000610c69610c62610ebc565b848461108f565b6001905092915050565b6000600260008473ffffffffffffffffffffffffffffffffffffffff1673ffffffffffffffffffffffffffffffffffffffff16815260200190815260200160002060008373ffffffffffffffffffffffffffffffffffffffff1673ffffffffffffffffffffffffffffffffffffffff16815260200190815260200160002054905092915050565b610d02610ebc565b73ffffffffffffffffffffffffffffffffffffffff1660008054906101000a900473ffffffffffffffffffffffffffffffffffffffff1673ffffffffffffffffffffffffffffffffffffffff1614610d8f576040517f08c379a0000000000000000000000000000000000000000000000000000000008152600401610d8690611878565b60405180910390fd5b600073ffffffffffffffffffffffffffffffffffffffff168173ffffffffffffffffffffffffffffffffffffffff161415610dff576040517f08c379a0000000000000000000000000000000000000000000000000000000008152600401610df6906117f8565b60405180910390fd5b8073ffffffffffffffffffffffffffffffffffffffff1660008054906101000a900473ffffffffffffffffffffffffffffffffffffffff1673ffffffffffffffffffffffffffffffffffffffff167f8be0079c531659141344cd1fd0a4f28419497f9722a3daafe3b4186f6b6457e060405160405180910390a3806000806101000a81548173ffffffffffffffffffffffffffffffffffffffff021916908373ffffffffffffffffffffffffffffffffffffffff16021790555050565b600033905090565b600073ffffffffffffffffffffffffffffffffffffffff168373ffffffffffffffffffffffffffffffffffffffff161415610f34576040517f08c379a0000000000000000000000000000000000000000000000000000000008152600401610f2b90611818565b60405180910390fd5b600073ffffffffffffffffffffffffffffffffffffffff168273ffffffffffffffffffffffffffffffffffffffff161415610fa4576040517f08c379a0000000000000000000000000000000000000000000000000000000008152600401610f9b906118d8565b60405180910390fd5b80600260008573ffffffffffffffffffffffffffffffffffffffff1673ffffffffffffffffffffffffffffffffffffffff16815260200190815260200160002060008473ffffffffffffffffffffffffffffffffffffffff1673ffffffffffffffffffffffffffffffffffffffff168152602001908152602001600020819055508173ffffffffffffffffffffffffffffffffffffffff168373ffffffffffffffffffffffffffffffffffffffff167f8c5be1e5ebec7d5bd14f71427d1e84f3dd0314c0f7b2291e5b200ac8c7c3b9258360405161108291906118f8565b60405180910390a3505050565b600073ffffffffffffffffffffffffffffffffffffffff168373ffffffffffffffffffffffffffffffffffffffff1614156110ff576040517f08c379a00000000000000000000000000000000000000000000000000000000081526004016110f6906118b8565b60405180910390fd5b600073ffffffffffffffffffffffffffffffffffffffff168273ffffffffffffffffffffffffffffffffffffffff16141561116f576040517f08c379a0000000000000000000000000000000000000000000000000000000008152600401611166906117d8565b60405180910390fd5b61117a838383611488565b80600160008573ffffffffffffffffffffffffffffffffffffffff1673ffffffffffffffffffffffffffffffffffffffff168152602001908152602001600020546111c591906119a0565b600160008573ffffffffffffffffffffffffffffffffffffffff1673ffffffffffffffffffffffffffffffffffffffff1681526020019081526020016000208190555080600160008473ffffffffffffffffffffffffffffffffffffffff1673ffffffffffffffffffffffffffffffffffffffff16815260200190815260200160002054611253919061194a565b600160008473ffffffffffffffffffffffffffffffffffffffff1673ffffffffffffffffffffffffffffffffffffffff168152602001908152602001600020819055508173ffffffffffffffffffffffffffffffffffffffff168373ffffffffffffffffffffffffffffffffffffffff167fddf252ad1be2c89b69c2b068fc378daa952ba7f163c4a11628f55a4df523b3ef836040516112f391906118f8565b60405180910390a3505050565b600073ffffffffffffffffffffffffffffffffffffffff168273ffffffffffffffffffffffffffffffffffffffff161415611370576040517f08c379a000000000000000000000000000000000000000000000000000000000815260040161136790611898565b60405180910390fd5b61137c60008383611488565b8060035461138a919061194a565b60038190555080600160008473ffffffffffffffffffffffffffffffffffffffff1673ffffffffffffffffffffffffffffffffffffffff168152602001908152602001600020546113db919061194a565b600160008473ffffffffffffffffffffffffffffffffffffffff1673ffffffffffffffffffffffffffffffffffffffff168152602001908152602001600020819055508173ffffffffffffffffffffffffffffffffffffffff16600073ffffffffffffffffffffffffffffffffffffffff167fddf252ad1be2c89b69c2b068fc378daa952ba7f163c4a11628f55a4df523b3ef8360405161147c91906118f8565b60405180910390a35050565b505050565b60008135905061149c81611d52565b92915050565b6000813590506114b181611d69565b92915050565b6000602082840312156114c957600080fd5b60006114d78482850161148d565b91505092915050565b600080604083850312156114f357600080fd5b60006115018582860161148d565b92505060206115128582860161148d565b9150509250929050565b60008060006060848603121561153157600080fd5b600061153f8682870161148d565b93505060206115508682870161148d565b9250506040611561868287016114a2565b9150509250925092565b6000806040838503121561157e57600080fd5b600061158c8582860161148d565b925050602061159d858286016114a2565b9150509250929050565b6115b0816119d4565b82525050565b6115bf816119e6565b82525050565b60006115d08261192e565b6115da8185611939565b93506115ea818560208601611a29565b6115f381611aec565b840191505092915050565b600061160b602983611939565b915061161682611afd565b604082019050919050565b600061162e601e83611939565b915061163982611b4c565b602082019050919050565b6000611651602a83611939565b915061165c82611b75565b604082019050919050565b6000611674602383611939565b915061167f82611bc4565b604082019050919050565b6000611697601283611939565b91506116a282611c13565b602082019050919050565b60006116ba601c83611939565b91506116c582611c3c565b602082019050919050565b60006116dd602583611939565b91506116e882611c65565b604082019050919050565b6000611700602b83611939565b915061170b82611cb4565b604082019050919050565b6000611723602883611939565b915061172e82611d03565b604082019050919050565b61174281611a12565b82525050565b61175181611a1c565b82525050565b600060208201905061176c60008301846115a7565b92915050565b600060408201905061178760008301856115a7565b6117946020830184611739565b9392505050565b60006020820190506117b060008301846115b6565b92915050565b600060208201905081810360008301526117d081846115c5565b905092915050565b600060208201905081810360008301526117f1816115fe565b9050919050565b6000602082019050818103600083015261181181611621565b9050919050565b6000602082019050818103600083015261183181611644565b9050919050565b6000602082019050818103600083015261185181611667565b9050919050565b600060208201905081810360008301526118718161168a565b9050919050565b60006020820190508181036000830152611891816116ad565b9050919050565b600060208201905081810360008301526118b1816116d0565b9050919050565b600060208201905081810360008301526118d1816116f3565b9050919050565b600060208201905081810360008301526118f181611716565b9050919050565b600060208201905061190d6000830184611739565b92915050565b60006020820190506119286000830184611748565b92915050565b600081519050919050565b600082825260208201905092915050565b600061195582611a12565b915061196083611a12565b9250827fffffffffffffffffffffffffffffffffffffffffffffffffffffffffffffffff0382111561199557611994611a8e565b5b828201905092915050565b60006119ab82611a12565b91506119b683611a12565b9250828210156119c9576119c8611a8e565b5b828203905092915050565b60006119df826119f2565b9050919050565b60008115159050919050565b600073ffffffffffffffffffffffffffffffffffffffff82169050919050565b6000819050919050565b600060ff82169050919050565b60005b83811015611a47578082015181840152602081019050611a2c565b83811115611a56576000848401525b50505050565b60006002820490506001821680611a7457607f821691505b60208210811415611a8857611a87611abd565b5b50919050565b7f4e487b7100000000000000000000000000000000000000000000000000000000600052601160045260246000fd5b7f4e487b7100000000000000000000000000000000000000000000000000000000600052602260045260246000fd5b6000601f19601f8301169050919050565b7f5472616e7366657220746f20746865207a65726f2061646472657373206e6f7460008201527f20616c6c6f7765642e0000000000000000000000000000000000000000000000602082015250565b7f4e6577206f776e657220697320746865207a65726f20616464726573732e0000600082015250565b7f417070726f76652066726f6d20746865207a65726f2061646472657373206e6f60008201527f7420616c6c6f7765642e00000000000000000000000000000000000000000000602082015250565b7f4372656174696e67206e657720746f6b656e73206973206e6f7420616c6c6f7760008201527f65642e0000000000000000000000000000000000000000000000000000000000602082015250565b7f496e737566696369656e742066756e6473210000000000000000000000000000600082015250565b7f5468652063616c6c6572206973206e6f7420746865206f776e65722e00000000600082015250565b7f4d696e7420746f20746865207a65726f2061646472657373206e6f7420616c6c60008201527f6f7765642e000000000000000000000000000000000000000000000000000000602082015250565b7f5472616e736665722066726f6d20746865207a65726f2061646472657373206e60008201527f6f7420616c6c6f7765642e000000000000000000000000000000000000000000602082015250565b7f417070726f766520746f20746865207a65726f2061646472657373206e6f742060008201527f616c6c6f7765642e000000000000000000000000000000000000000000000000602082015250565b611d5b816119d4565b8114611d6657600080fd5b50565b611d7281611a12565b8114611d7d57600080fd5b5056fea2646970667358221220550111e420bf6006003c7f3df5792ddbf5736edd0c05d630958f45a73a46205e64736f6c63430008030033",
  "immutableReferences": {},
  "source": "// SPDX-License-Identifier: GPL-3.0\npragma solidity >=0.8.0 <0.9.0;\n\nimport \"./ERC20.sol\";\nimport \"./utils/Ownable.sol\";\n\ncontract CoinvestingDeFiToken is Ownable, ERC20 {\n    // Public variables\n    address public saleReserve;\n    address public technicalAndOperationalReserve;\n\n    // Events\n    event Received(address, uint);\n    \n    // Constructor\n    constructor (\n        string memory name,\n        string memory symbol,\n        uint _initialSupply,\n        address _saleReserve,\n        address _technicalAndOperationalReserve          \n    ) payable ERC20 (name, symbol) {\n        saleReserve = _saleReserve;\n        technicalAndOperationalReserve = _technicalAndOperationalReserve;\n        if (_initialSupply > 0) {\n            require((_initialSupply % 10) == 0, \"_initialSupply has to be a multiple of 10!\");\n            uint eightyFivePerCent = _initialSupply * 85 / 100;\n            uint fifteenPerCent = _initialSupply * 15 / 100; \n            mint(saleReserve, fifteenPerCent); \n            mint(technicalAndOperationalReserve, eightyFivePerCent);       \n            mintingFinished = true;\n        }\n    }\n\n    // Receive function \n    receive() external payable {\n        emit Received(msg.sender, msg.value);\n    }\n\n    // External functions\n    function withdraw() external onlyOwner {\n        require(address(this).balance > 0, \"Insuficient funds!\");\n        uint amount = address(this).balance;\n        // sending to prevent re-entrancy attacks\n        address(this).balance - amount;\n        payable(msg.sender).transfer(amount);\n    }\n    \n    // Public functions\n    function mint(address account, uint amount) public onlyOwner canMint {\n        _mint(account, amount);\n    }\n}\n",
  "sourcePath": "/home/dev/Playground/DeFi/coinvesting-defi-token-core/contracts/CoinvestingDeFiToken.sol",
  "compiler": {
    "name": "solc",
    "version": "0.8.3+commit.8d00100c.Emscripten.clang"
  },
  "schemaVersion": "3.3.4",
  "updatedAt": "2021-04-17T00:07:40.719Z",
  "devdoc": {
    "kind": "dev",
    "methods": {
      "allowance(address,address)": {
        "details": "See {IERC20-allowance}."
      },
      "approve(address,uint256)": {
        "details": "See {IERC20-approve}. Requirements: - `spender` cannot be the zero address."
      },
      "balanceOf(address)": {
        "details": "See {IERC20-balanceOf}."
      },
      "decimals()": {
        "details": "Returns the number of decimals used to get its user representation. For example, if `decimals` equals `2`, a balance of `505` tokens should be displayed to a user as `5,05` (`505 / 10 ** 2`). Tokens usually opt for a value of 18, imitating the relationship between Ether and Wei. This is the value {ERC20} uses, unless {_setupDecimals} is called. NOTE: This information is only used for _display_ purposes: it in no way affects any of the arithmetic of the contract, including {IERC20-balanceOf} and {IERC20-transfer}."
      },
      "decreaseAllowance(address,uint256)": {
        "details": "Atomically decreases the allowance granted to `spender` by the caller. This is an alternative to {approve} that can be used as a mitigation for problems described in {IERC20-approve}. Emits an {Approval} event indicating the updated allowance. Requirements: - `spender` cannot be the zero address. - `spender` must have allowance for the caller of at least `subtractedValue`."
      },
      "increaseAllowance(address,uint256)": {
        "details": "Atomically increases the allowance granted to `spender` by the caller. This is an alternative to {approve} that can be used as a mitigation for problems described in {IERC20-approve}. Emits an {Approval} event indicating the updated allowance. Requirements: - `spender` cannot be the zero address."
      },
      "name()": {
        "details": "Returns the name of the token."
      },
      "owner()": {
        "details": "Returns the address of the current owner."
      },
      "renounceOwnership()": {
        "details": "Leaves the contract without owner. It will not be possible to call `onlyOwner` functions anymore. Can only be called by the current owner. NOTE: Renouncing ownership will leave the contract without an owner, thereby removing any functionality that is only available to the owner."
      },
      "symbol()": {
        "details": "Returns the symbol of the token, usually a shorter version of the name."
      },
      "totalSupply()": {
        "details": "See {IERC20-totalSupply}."
      },
      "transfer(address,uint256)": {
        "details": "See {IERC20-transfer}. Requirements: - `recipient` cannot be the zero address. - the caller must have a balance of at least `amount`."
      },
      "transferFrom(address,address,uint256)": {
        "details": "See {IERC20-transferFrom}. Emits an {Approval} event indicating the updated allowance. This is not required by the EIP. See the note at the beginning of {ERC20}. Requirements: - `sender` and `recipient` cannot be the zero address. - `sender` must have a balance of at least `amount`. - the caller must have allowance for ``sender``'s tokens of at least `amount`."
      },
      "transferOwnership(address)": {
        "details": "Transfers ownership of the contract to a new account (`newOwner`). Can only be called by the current owner."
      }
    },
    "version": 1
  },
  "userdoc": {
    "kind": "user",
    "methods": {},
    "version": 1
  },
  "db": {
    "callBytecode": {
      "id": "0xabf765a129a6cbdef7d01ccd6b5b885420123fec9d1ef9a2d0ef6814477c6cf6"
    },
    "createBytecode": {
      "id": "0x27e6ff92ae33310146efcc4dbb7811d4a4f1b09ed8a7baf4b80df6f5a04b4502"
    },
    "contract": {
      "id": "0x637c7b5ecdccd57a6d1dad11d150ce06523be6cada59b11b3583b736f96cbf46"
    }
  }
}