{
  "contractName": "MultiSigWallet",
  "abi": [
    {
      "inputs": [],
      "stateMutability": "payable",
      "type": "constructor",
      "payable": true
    },
    {
      "anonymous": false,
      "inputs": [
        {
          "indexed": false,
          "internalType": "address",
          "name": "from",
          "type": "address"
        },
        {
          "indexed": false,
          "internalType": "uint256",
          "name": "amount",
          "type": "uint256"
        }
      ],
      "name": "FundsDeposited",
      "type": "event"
    },
    {
      "anonymous": false,
      "inputs": [
        {
          "indexed": false,
          "internalType": "address",
          "name": "newOwner",
          "type": "address"
        }
      ],
      "name": "NewOwnerAdded",
      "type": "event"
    },
    {
      "anonymous": false,
      "inputs": [
        {
          "indexed": true,
          "internalType": "address",
          "name": "previousOwner",
          "type": "address"
        },
        {
          "indexed": true,
          "internalType": "address",
          "name": "newOwner",
          "type": "address"
        }
      ],
      "name": "OwnershipTransferred",
      "type": "event"
    },
    {
      "anonymous": false,
      "inputs": [
        {
          "indexed": false,
          "internalType": "uint256",
          "name": "transactionId",
          "type": "uint256"
        },
        {
          "indexed": false,
          "internalType": "address",
          "name": "to",
          "type": "address"
        },
        {
          "indexed": false,
          "internalType": "uint256",
          "name": "amount",
          "type": "uint256"
        },
        {
          "indexed": false,
          "internalType": "address",
          "name": "createdBy",
          "type": "address"
        },
        {
          "indexed": false,
          "internalType": "address",
          "name": "executedBy",
          "type": "address"
        }
      ],
      "name": "TransactionCompleted",
      "type": "event"
    },
    {
      "anonymous": false,
      "inputs": [
        {
          "indexed": false,
          "internalType": "uint256",
          "name": "nextTransactionId",
          "type": "uint256"
        },
        {
          "indexed": false,
          "internalType": "address",
          "name": "createdBy",
          "type": "address"
        },
        {
          "indexed": false,
          "internalType": "address",
          "name": "to",
          "type": "address"
        },
        {
          "indexed": false,
          "internalType": "uint256",
          "name": "amount",
          "type": "uint256"
        }
      ],
      "name": "TransactionCreated",
      "type": "event"
    },
    {
      "anonymous": false,
      "inputs": [
        {
          "indexed": false,
          "internalType": "uint256",
          "name": "transactionId",
          "type": "uint256"
        },
        {
          "indexed": false,
          "internalType": "address",
          "name": "signer",
          "type": "address"
        }
      ],
      "name": "TransactionSigned",
      "type": "event"
    },
    {
      "inputs": [],
      "name": "owner",
      "outputs": [
        {
          "internalType": "address",
          "name": "",
          "type": "address"
        }
      ],
      "stateMutability": "view",
      "type": "function",
      "constant": true
    },
    {
      "inputs": [],
      "name": "quorum",
      "outputs": [
        {
          "internalType": "uint256",
          "name": "",
          "type": "uint256"
        }
      ],
      "stateMutability": "view",
      "type": "function",
      "constant": true
    },
    {
      "inputs": [],
      "name": "renounceOwnership",
      "outputs": [],
      "stateMutability": "nonpayable",
      "type": "function"
    },
    {
      "inputs": [],
      "name": "tokenContract",
      "outputs": [
        {
          "internalType": "contract CoinvestingDeFiToken",
          "name": "",
          "type": "address"
        }
      ],
      "stateMutability": "view",
      "type": "function",
      "constant": true
    },
    {
      "inputs": [
        {
          "internalType": "address",
          "name": "newOwner",
          "type": "address"
        }
      ],
      "name": "transferOwnership",
      "outputs": [],
      "stateMutability": "nonpayable",
      "type": "function"
    },
    {
      "stateMutability": "payable",
      "type": "receive",
      "payable": true
    },
    {
      "inputs": [
        {
          "internalType": "address",
          "name": "addr",
          "type": "address"
        }
      ],
      "name": "activateOwner",
      "outputs": [],
      "stateMutability": "nonpayable",
      "type": "function"
    },
    {
      "inputs": [
        {
          "internalType": "address",
          "name": "newOwner",
          "type": "address"
        }
      ],
      "name": "addOwner",
      "outputs": [],
      "stateMutability": "nonpayable",
      "type": "function"
    },
    {
      "inputs": [
        {
          "internalType": "uint256",
          "name": "amount",
          "type": "uint256"
        },
        {
          "internalType": "address payable",
          "name": "to",
          "type": "address"
        }
      ],
      "name": "createTransfer",
      "outputs": [],
      "stateMutability": "nonpayable",
      "type": "function"
    },
    {
      "inputs": [
        {
          "internalType": "address",
          "name": "addr",
          "type": "address"
        }
      ],
      "name": "deactivateOwner",
      "outputs": [],
      "stateMutability": "nonpayable",
      "type": "function"
    },
    {
      "inputs": [
        {
          "internalType": "uint256",
          "name": "id",
          "type": "uint256"
        }
      ],
      "name": "executeTransaction",
      "outputs": [],
      "stateMutability": "nonpayable",
      "type": "function"
    },
    {
      "inputs": [
        {
          "internalType": "contract CoinvestingDeFiToken",
          "name": "_tokenContract",
          "type": "address"
        }
      ],
      "name": "setTokenContract",
      "outputs": [],
      "stateMutability": "nonpayable",
      "type": "function"
    },
    {
      "inputs": [
        {
          "internalType": "uint256",
          "name": "id",
          "type": "uint256"
        }
      ],
      "name": "signTransation",
      "outputs": [],
      "stateMutability": "nonpayable",
      "type": "function"
    },
    {
      "inputs": [],
      "name": "withdraw",
      "outputs": [],
      "stateMutability": "nonpayable",
      "type": "function"
    },
    {
      "inputs": [],
      "name": "getBalance",
      "outputs": [
        {
          "internalType": "uint256",
          "name": "",
          "type": "uint256"
        }
      ],
      "stateMutability": "view",
      "type": "function",
      "constant": true
    },
    {
      "inputs": [],
      "name": "getPendingTransactions",
      "outputs": [
        {
          "internalType": "uint256[]",
          "name": "",
          "type": "uint256[]"
        }
      ],
      "stateMutability": "view",
      "type": "function",
      "constant": true
    },
    {
      "inputs": [],
      "name": "getCompletedTransactions",
      "outputs": [
        {
          "internalType": "uint256[]",
          "name": "",
          "type": "uint256[]"
        }
      ],
      "stateMutability": "view",
      "type": "function",
      "constant": true
    },
    {
      "inputs": [],
      "name": "getTokenBalance",
      "outputs": [
        {
          "internalType": "uint256",
          "name": "",
          "type": "uint256"
        }
      ],
      "stateMutability": "view",
      "type": "function",
      "constant": true
    },
    {
      "inputs": [
        {
          "internalType": "uint256",
          "name": "transactionId",
          "type": "uint256"
        }
      ],
      "name": "getTransactionSignatureCount",
      "outputs": [
        {
          "internalType": "uint256",
          "name": "",
          "type": "uint256"
        }
      ],
      "stateMutability": "view",
      "type": "function",
      "constant": true
    }
  ],
  "bytecode": "0x60806040526000600160146101000a81548160ff021916908315150217905550600061002f6101a160201b60201c565b9050806000806101000a81548173ffffffffffffffffffffffffffffffffffffffff021916908373ffffffffffffffffffffffffffffffffffffffff1602179055508073ffffffffffffffffffffffffffffffffffffffff16600073ffffffffffffffffffffffffffffffffffffffff167f8be0079c531659141344cd1fd0a4f28419497f9722a3daafe3b4186f6b6457e060405160405180910390a35033600560006101000a81548173ffffffffffffffffffffffffffffffffffffffff021916908373ffffffffffffffffffffffffffffffffffffffff1602179055506001600660003373ffffffffffffffffffffffffffffffffffffffff1673ffffffffffffffffffffffffffffffffffffffff16815260200190815260200160002060006101000a81548160ff02191690836002811115610197577f4e487b7100000000000000000000000000000000000000000000000000000000600052602160045260246000fd5b02179055506101a9565b600033905090565b612b2a80620001b96000396000f3fe60806040526004361061010d5760003560e01c806382b2e25711610095578063bbcd5bbe11610064578063bbcd5bbe14610363578063d11db83f1461038c578063e8b7d430146103b7578063ee22610b146103e0578063f2fde38b146104095761014d565b806382b2e257146102b95780638da5cb5b146102e45780639187f65e1461030f578063ae5a9d17146103385761014d565b8063459a3f78116100dc578063459a3f78146101e85780634c12fa471461022557806355a373d61461024e5780637065cb4814610279578063715018a6146102a25761014d565b8063026eb9f21461015257806312065fe01461017b5780631703a018146101a65780633ccfd60b146101d15761014d565b3661014d577f543ba50a5eec5e6178218e364b1d0f396157b3c8fa278522c2cb7fd99407d47433346040516101439291906122ea565b60405180910390a1005b600080fd5b34801561015e57600080fd5b5061017960048036038101906101749190611f15565b610432565b005b34801561018757600080fd5b506101906105c8565b60405161019d91906124f0565b60405180910390f35b3480156101b257600080fd5b506101bb6105d0565b6040516101c891906124f0565b60405180910390f35b3480156101dd57600080fd5b506101e66105d5565b005b3480156101f457600080fd5b5061020f600480360381019061020a9190611f90565b610709565b60405161021c91906124f0565b60405180910390f35b34801561023157600080fd5b5061024c60048036038101906102479190611fe2565b6107ce565b005b34801561025a57600080fd5b50610263610b1b565b6040516102709190612335565b60405180910390f35b34801561028557600080fd5b506102a0600480360381019061029b9190611f15565b610b41565b005b3480156102ae57600080fd5b506102b7610e0d565b005b3480156102c557600080fd5b506102ce610f60565b6040516102db91906124f0565b60405180910390f35b3480156102f057600080fd5b506102f9611012565b60405161030691906122a6565b60405180910390f35b34801561031b57600080fd5b5061033660048036038101906103319190611f15565b61103b565b005b34801561034457600080fd5b5061034d6111d1565b60405161035a9190612313565b60405180910390f35b34801561036f57600080fd5b5061038a60048036038101906103859190611f67565b611229565b005b34801561039857600080fd5b506103a161136c565b6040516103ae9190612313565b60405180910390f35b3480156103c357600080fd5b506103de60048036038101906103d99190611f90565b6113c4565b005b3480156103ec57600080fd5b5061040760048036038101906104029190611f90565b611789565b005b34801561041557600080fd5b50610430600480360381019061042b9190611f15565b611ccd565b005b61043a611e8f565b73ffffffffffffffffffffffffffffffffffffffff1660008054906101000a900473ffffffffffffffffffffffffffffffffffffffff1673ffffffffffffffffffffffffffffffffffffffff16146104c7576040517f08c379a00000000000000000000000000000000000000000000000000000000081526004016104be906124b0565b60405180910390fd5b600073ffffffffffffffffffffffffffffffffffffffff168173ffffffffffffffffffffffffffffffffffffffff161415610537576040517f08c379a000000000000000000000000000000000000000000000000000000000815260040161052e90612450565b60405180910390fd5b6002600660008373ffffffffffffffffffffffffffffffffffffffff1673ffffffffffffffffffffffffffffffffffffffff16815260200190815260200160002060006101000a81548160ff021916908360028111156105c0577f4e487b7100000000000000000000000000000000000000000000000000000000600052602160045260246000fd5b021790555050565b600047905090565b600281565b6105dd611e8f565b73ffffffffffffffffffffffffffffffffffffffff1660008054906101000a900473ffffffffffffffffffffffffffffffffffffffff1673ffffffffffffffffffffffffffffffffffffffff161461066a576040517f08c379a0000000000000000000000000000000000000000000000000000000008152600401610661906124b0565b60405180910390fd5b600047116106ad576040517f08c379a00000000000000000000000000000000000000000000000000000000081526004016106a490612470565b60405180910390fd5b600047905080476106be9190612616565b503373ffffffffffffffffffffffffffffffffffffffff166108fc829081150290604051600060405180830381858888f19350505050158015610705573d6000803e3d6000fd5b5050565b60008073ffffffffffffffffffffffffffffffffffffffff166007600084815260200190815260200160002060020160009054906101000a900473ffffffffffffffffffffffffffffffffffffffff1673ffffffffffffffffffffffffffffffffffffffff1614156107b0576040517f08c379a00000000000000000000000000000000000000000000000000000000081526004016107a790612390565b60405180910390fd5b60076000838152602001908152602001600020600501549050919050565b60016002811115610808577f4e487b7100000000000000000000000000000000000000000000000000000000600052602160045260246000fd5b600660003373ffffffffffffffffffffffffffffffffffffffff1673ffffffffffffffffffffffffffffffffffffffff16815260200190815260200160002060009054906101000a900460ff16600281111561088d577f4e487b7100000000000000000000000000000000000000000000000000000000600052602160045260246000fd5b146108cd576040517f08c379a00000000000000000000000000000000000000000000000000000000081526004016108c490612370565b60405180910390fd5b600260008154809291906108e090612710565b91905055506040518060e0016040528060025481526020018381526020018273ffffffffffffffffffffffffffffffffffffffff168152602001600160009054906101000a900473ffffffffffffffffffffffffffffffffffffffff1673ffffffffffffffffffffffffffffffffffffffff1681526020013373ffffffffffffffffffffffffffffffffffffffff1681526020016000815260200160001515815250600760006002548152602001908152602001600020600082015181600001556020820151816001015560408201518160020160006101000a81548173ffffffffffffffffffffffffffffffffffffffff021916908373ffffffffffffffffffffffffffffffffffffffff16021790555060608201518160030160006101000a81548173ffffffffffffffffffffffffffffffffffffffff021916908373ffffffffffffffffffffffffffffffffffffffff16021790555060808201518160040160006101000a81548173ffffffffffffffffffffffffffffffffffffffff021916908373ffffffffffffffffffffffffffffffffffffffff16021790555060a0820151816005015560c08201518160060160006101000a81548160ff021916908315150217905550905050600360025490806001815401808255809150506001900390600052602060002001600090919091909150557fe9097a4f4eddc0e5906640fcd9e1193c9db52771536ca4c8b06ab4c40aa045d2600254338385604051610b0f9493929190612587565b60405180910390a15050565b600160009054906101000a900473ffffffffffffffffffffffffffffffffffffffff1681565b610b49611e8f565b73ffffffffffffffffffffffffffffffffffffffff1660008054906101000a900473ffffffffffffffffffffffffffffffffffffffff1673ffffffffffffffffffffffffffffffffffffffff1614610bd6576040517f08c379a0000000000000000000000000000000000000000000000000000000008152600401610bcd906124b0565b60405180910390fd5b600073ffffffffffffffffffffffffffffffffffffffff168173ffffffffffffffffffffffffffffffffffffffff161415610c46576040517f08c379a0000000000000000000000000000000000000000000000000000000008152600401610c3d90612450565b60405180910390fd5b60006002811115610c80577f4e487b7100000000000000000000000000000000000000000000000000000000600052602160045260246000fd5b600660008373ffffffffffffffffffffffffffffffffffffffff1673ffffffffffffffffffffffffffffffffffffffff16815260200190815260200160002060009054906101000a900460ff166002811115610d05577f4e487b7100000000000000000000000000000000000000000000000000000000600052602160045260246000fd5b14610d45576040517f08c379a0000000000000000000000000000000000000000000000000000000008152600401610d3c906123d0565b60405180910390fd5b6001600660008373ffffffffffffffffffffffffffffffffffffffff1673ffffffffffffffffffffffffffffffffffffffff16815260200190815260200160002060006101000a81548160ff02191690836002811115610dce577f4e487b7100000000000000000000000000000000000000000000000000000000600052602160045260246000fd5b02179055507f6e4e2a7c0e1576d48aeabd633d094f622d4f046286fec8b9045dd7f5c9fb087d81604051610e0291906122a6565b60405180910390a150565b610e15611e8f565b73ffffffffffffffffffffffffffffffffffffffff1660008054906101000a900473ffffffffffffffffffffffffffffffffffffffff1673ffffffffffffffffffffffffffffffffffffffff1614610ea2576040517f08c379a0000000000000000000000000000000000000000000000000000000008152600401610e99906124b0565b60405180910390fd5b600073ffffffffffffffffffffffffffffffffffffffff1660008054906101000a900473ffffffffffffffffffffffffffffffffffffffff1673ffffffffffffffffffffffffffffffffffffffff167f8be0079c531659141344cd1fd0a4f28419497f9722a3daafe3b4186f6b6457e060405160405180910390a360008060006101000a81548173ffffffffffffffffffffffffffffffffffffffff021916908373ffffffffffffffffffffffffffffffffffffffff160217905550565b6000600160009054906101000a900473ffffffffffffffffffffffffffffffffffffffff1673ffffffffffffffffffffffffffffffffffffffff166370a08231306040518263ffffffff1660e01b8152600401610fbd91906122a6565b60206040518083038186803b158015610fd557600080fd5b505afa158015610fe9573d6000803e3d6000fd5b505050506040513d601f19601f8201168201806040525081019061100d9190611fb9565b905090565b60008060009054906101000a900473ffffffffffffffffffffffffffffffffffffffff16905090565b611043611e8f565b73ffffffffffffffffffffffffffffffffffffffff1660008054906101000a900473ffffffffffffffffffffffffffffffffffffffff1673ffffffffffffffffffffffffffffffffffffffff16146110d0576040517f08c379a00000000000000000000000000000000000000000000000000000000081526004016110c7906124b0565b60405180910390fd5b600073ffffffffffffffffffffffffffffffffffffffff168173ffffffffffffffffffffffffffffffffffffffff161415611140576040517f08c379a000000000000000000000000000000000000000000000000000000000815260040161113790612450565b60405180910390fd5b6001600660008373ffffffffffffffffffffffffffffffffffffffff1673ffffffffffffffffffffffffffffffffffffffff16815260200190815260200160002060006101000a81548160ff021916908360028111156111c9577f4e487b7100000000000000000000000000000000000000000000000000000000600052602160045260246000fd5b021790555050565b6060600480548060200260200160405190810160405280929190818152602001828054801561121f57602002820191906000526020600020905b81548152602001906001019080831161120b575b5050505050905090565b611231611e8f565b73ffffffffffffffffffffffffffffffffffffffff1660008054906101000a900473ffffffffffffffffffffffffffffffffffffffff1673ffffffffffffffffffffffffffffffffffffffff16146112be576040517f08c379a00000000000000000000000000000000000000000000000000000000081526004016112b5906124b0565b60405180910390fd5b600160149054906101000a900460ff161561130e576040517f08c379a000000000000000000000000000000000000000000000000000000000815260040161130590612410565b60405180910390fd5b80600160006101000a81548173ffffffffffffffffffffffffffffffffffffffff021916908373ffffffffffffffffffffffffffffffffffffffff16021790555060018060146101000a81548160ff02191690831515021790555050565b606060038054806020026020016040519081016040528092919081815260200182805480156113ba57602002820191906000526020600020905b8154815260200190600101908083116113a6575b5050505050905090565b600160028111156113fe577f4e487b7100000000000000000000000000000000000000000000000000000000600052602160045260246000fd5b600660003373ffffffffffffffffffffffffffffffffffffffff1673ffffffffffffffffffffffffffffffffffffffff16815260200190815260200160002060009054906101000a900460ff166002811115611483577f4e487b7100000000000000000000000000000000000000000000000000000000600052602160045260246000fd5b146114c3576040517f08c379a00000000000000000000000000000000000000000000000000000000081526004016114ba90612370565b60405180910390fd5b600073ffffffffffffffffffffffffffffffffffffffff166007600083815260200190815260200160002060020160009054906101000a900473ffffffffffffffffffffffffffffffffffffffff1673ffffffffffffffffffffffffffffffffffffffff161415611569576040517f08c379a000000000000000000000000000000000000000000000000000000000815260040161156090612390565b60405180910390fd5b3373ffffffffffffffffffffffffffffffffffffffff166007600083815260200190815260200160002060040160009054906101000a900473ffffffffffffffffffffffffffffffffffffffff1673ffffffffffffffffffffffffffffffffffffffff16141561160e576040517f08c379a0000000000000000000000000000000000000000000000000000000008152600401611605906123f0565b60405180910390fd5b600015156008600083815260200190815260200160002060003373ffffffffffffffffffffffffffffffffffffffff1673ffffffffffffffffffffffffffffffffffffffff16815260200190815260200160002060009054906101000a900460ff161515146116b2576040517f08c379a00000000000000000000000000000000000000000000000000000000081526004016116a990612430565b60405180910390fd5b600060076000838152602001908152602001600020905060016008600084815260200190815260200160002060003373ffffffffffffffffffffffffffffffffffffffff1673ffffffffffffffffffffffffffffffffffffffff16815260200190815260200160002060006101000a81548160ff02191690831515021790555080600501600081548092919061174790612710565b91905055507f737f6609fa194738ed162051f994c6e9599a830846ea9d72d6501d79871e0981823360405161177d92919061250b565b60405180910390a15050565b600160028111156117c3577f4e487b7100000000000000000000000000000000000000000000000000000000600052602160045260246000fd5b600660003373ffffffffffffffffffffffffffffffffffffffff1673ffffffffffffffffffffffffffffffffffffffff16815260200190815260200160002060009054906101000a900460ff166002811115611848577f4e487b7100000000000000000000000000000000000000000000000000000000600052602160045260246000fd5b14611888576040517f08c379a000000000000000000000000000000000000000000000000000000000815260040161187f90612370565b60405180910390fd5b600073ffffffffffffffffffffffffffffffffffffffff166007600083815260200190815260200160002060020160009054906101000a900473ffffffffffffffffffffffffffffffffffffffff1673ffffffffffffffffffffffffffffffffffffffff16141561192e576040517f08c379a000000000000000000000000000000000000000000000000000000000815260040161192590612390565b60405180910390fd5b600015156007600083815260200190815260200160002060060160009054906101000a900460ff16151514611998576040517f08c379a000000000000000000000000000000000000000000000000000000000815260040161198f906124d0565b60405180910390fd5b6002600760008381526020019081526020016000206005015410156119f2576040517f08c379a00000000000000000000000000000000000000000000000000000000081526004016119e990612490565b60405180910390fd5b6007600082815260200190815260200160002060010154600160009054906101000a900473ffffffffffffffffffffffffffffffffffffffff1673ffffffffffffffffffffffffffffffffffffffff166370a08231306040518263ffffffff1660e01b8152600401611a6491906122a6565b60206040518083038186803b158015611a7c57600080fd5b505afa158015611a90573d6000803e3d6000fd5b505050506040513d601f19601f82011682018060405250810190611ab49190611fb9565b1015611af5576040517f08c379a0000000000000000000000000000000000000000000000000000000008152600401611aec906123b0565b60405180910390fd5b60016007600083815260200190815260200160002060060160006101000a81548160ff02191690831515021790555060006007600083815260200190815260200160002060020160009054906101000a900473ffffffffffffffffffffffffffffffffffffffff169050600060076000848152602001908152602001600020600101549050600160009054906101000a900473ffffffffffffffffffffffffffffffffffffffff1673ffffffffffffffffffffffffffffffffffffffff1663a9059cbb83836040518363ffffffff1660e01b8152600401611bd79291906122c1565b602060405180830381600087803b158015611bf157600080fd5b505af1158015611c05573d6000803e3d6000fd5b505050506040513d601f19601f82011682018060405250810190611c299190611f3e565b5060048390806001815401808255809150506001900390600052602060002001600090919091909150557f619ec1be2a054aa3b93eabd8626ae2b2539841a9572c4e1a93ab2227ed508c678383836007600088815260200190815260200160002060040160009054906101000a900473ffffffffffffffffffffffffffffffffffffffff1633604051611cc0959493929190612534565b60405180910390a1505050565b611cd5611e8f565b73ffffffffffffffffffffffffffffffffffffffff1660008054906101000a900473ffffffffffffffffffffffffffffffffffffffff1673ffffffffffffffffffffffffffffffffffffffff1614611d62576040517f08c379a0000000000000000000000000000000000000000000000000000000008152600401611d59906124b0565b60405180910390fd5b600073ffffffffffffffffffffffffffffffffffffffff168173ffffffffffffffffffffffffffffffffffffffff161415611dd2576040517f08c379a0000000000000000000000000000000000000000000000000000000008152600401611dc990612350565b60405180910390fd5b8073ffffffffffffffffffffffffffffffffffffffff1660008054906101000a900473ffffffffffffffffffffffffffffffffffffffff1673ffffffffffffffffffffffffffffffffffffffff167f8be0079c531659141344cd1fd0a4f28419497f9722a3daafe3b4186f6b6457e060405160405180910390a3806000806101000a81548173ffffffffffffffffffffffffffffffffffffffff021916908373ffffffffffffffffffffffffffffffffffffffff16021790555050565b600033905090565b600081359050611ea681612a81565b92915050565b600081359050611ebb81612a98565b92915050565b600081519050611ed081612aaf565b92915050565b600081359050611ee581612ac6565b92915050565b600081359050611efa81612add565b92915050565b600081519050611f0f81612add565b92915050565b600060208284031215611f2757600080fd5b6000611f3584828501611e97565b91505092915050565b600060208284031215611f5057600080fd5b6000611f5e84828501611ec1565b91505092915050565b600060208284031215611f7957600080fd5b6000611f8784828501611ed6565b91505092915050565b600060208284031215611fa257600080fd5b6000611fb084828501611eeb565b91505092915050565b600060208284031215611fcb57600080fd5b6000611fd984828501611f00565b91505092915050565b60008060408385031215611ff557600080fd5b600061200385828601611eeb565b925050602061201485828601611eac565b9150509250929050565b600061202a8383612288565b60208301905092915050565b61203f816126b6565b82525050565b61204e8161264a565b82525050565b600061205f826125dc565b61206981856125f4565b9350612074836125cc565b8060005b838110156120a557815161208c888261201e565b9750612097836125e7565b925050600181019050612078565b5085935050505092915050565b6120bb816126c8565b82525050565b60006120ce601e83612605565b91506120d982612788565b602082019050919050565b60006120f1603883612605565b91506120fc826127b1565b604082019050919050565b6000612114601b83612605565b915061211f82612800565b602082019050919050565b6000612137601583612605565b915061214282612829565b602082019050919050565b600061215a601983612605565b915061216582612852565b602082019050919050565b600061217d602c83612605565b91506121888261287b565b604082019050919050565b60006121a0602283612605565b91506121ab826128ca565b604082019050919050565b60006121c3602783612605565b91506121ce82612919565b604082019050919050565b60006121e6601083612605565b91506121f182612968565b602082019050919050565b6000612209601283612605565b915061221482612991565b602082019050919050565b600061222c602583612605565b9150612237826129ba565b604082019050919050565b600061224f601c83612605565b915061225a82612a09565b602082019050919050565b6000612272602883612605565b915061227d82612a32565b604082019050919050565b612291816126ac565b82525050565b6122a0816126ac565b82525050565b60006020820190506122bb6000830184612045565b92915050565b60006040820190506122d66000830185612036565b6122e36020830184612297565b9392505050565b60006040820190506122ff6000830185612045565b61230c6020830184612297565b9392505050565b6000602082019050818103600083015261232d8184612054565b905092915050565b600060208201905061234a60008301846120b2565b92915050565b60006020820190508181036000830152612369816120c1565b9050919050565b60006020820190508181036000830152612389816120e4565b9050919050565b600060208201905081810360008301526123a981612107565b9050919050565b600060208201905081810360008301526123c98161212a565b9050919050565b600060208201905081810360008301526123e98161214d565b9050919050565b6000602082019050818103600083015261240981612170565b9050919050565b6000602082019050818103600083015261242981612193565b9050919050565b60006020820190508181036000830152612449816121b6565b9050919050565b60006020820190508181036000830152612469816121d9565b9050919050565b60006020820190508181036000830152612489816121fc565b9050919050565b600060208201905081810360008301526124a98161221f565b9050919050565b600060208201905081810360008301526124c981612242565b9050919050565b600060208201905081810360008301526124e981612265565b9050919050565b60006020820190506125056000830184612297565b92915050565b60006040820190506125206000830185612297565b61252d6020830184612045565b9392505050565b600060a0820190506125496000830188612297565b6125566020830187612036565b6125636040830186612297565b6125706060830185612045565b61257d6080830184612045565b9695505050505050565b600060808201905061259c6000830187612297565b6125a96020830186612045565b6125b66040830185612036565b6125c36060830184612297565b95945050505050565b6000819050602082019050919050565b600081519050919050565b6000602082019050919050565b600082825260208201905092915050565b600082825260208201905092915050565b6000612621826126ac565b915061262c836126ac565b92508282101561263f5761263e612759565b5b828203905092915050565b60006126558261268c565b9050919050565b60006126678261268c565b9050919050565b60008115159050919050565b60006126858261265c565b9050919050565b600073ffffffffffffffffffffffffffffffffffffffff82169050919050565b6000819050919050565b60006126c1826126ec565b9050919050565b60006126d3826126da565b9050919050565b60006126e58261268c565b9050919050565b60006126f7826126fe565b9050919050565b60006127098261268c565b9050919050565b600061271b826126ac565b91507fffffffffffffffffffffffffffffffffffffffffffffffffffffffffffffffff82141561274e5761274d612759565b5b600182019050919050565b7f4e487b7100000000000000000000000000000000000000000000000000000000600052601160045260246000fd5b7f4e6577206f776e657220697320746865207a65726f20616464726573732e0000600082015250565b7f596f75206d7573742068617665206f776e657220617574686f72697a6174696f60008201527f6e20746f20637265617465207472616e73616374696f6e210000000000000000602082015250565b7f5472616e73616374696f6e20646f6573206e6f74206578697374210000000000600082015250565b7f496e73756666696369656e742062616c616e63652e0000000000000000000000600082015250565b7f4164647265737320616c726561647920616e206f776e65722100000000000000600082015250565b7f5472616e73616374696f6e2063726561746f722063616e6e6f74207369676e2060008201527f7472616e73616374696f6e210000000000000000000000000000000000000000602082015250565b7f53657420636f6e747261637420746f6b656e206973206e6f7420616c6c6f776560008201527f6421000000000000000000000000000000000000000000000000000000000000602082015250565b7f43616e6e6f74207369676e207472616e73616374696f6e206d6f72652074686160008201527f6e206f6e63652100000000000000000000000000000000000000000000000000602082015250565b7f496e76616c696420616464726573732100000000000000000000000000000000600082015250565b7f496e737566696369656e742066756e6473210000000000000000000000000000600082015250565b7f5472616e73616374696f6e207265717569726573206d6f7265207369676e617460008201527f7572657321000000000000000000000000000000000000000000000000000000602082015250565b7f5468652063616c6c6572206973206e6f7420746865206f776e65722e00000000600082015250565b7f5472616e73616374696f6e732068617320616c7265616479206265656e20636f60008201527f6d706c6574656421000000000000000000000000000000000000000000000000602082015250565b612a8a8161264a565b8114612a9557600080fd5b50565b612aa18161265c565b8114612aac57600080fd5b50565b612ab88161266e565b8114612ac357600080fd5b50565b612acf8161267a565b8114612ada57600080fd5b50565b612ae6816126ac565b8114612af157600080fd5b5056fea264697066735822122067f3d27a600948773cbcd16c44973c50374e91cc880018cdf1aa7790aba01c8e64736f6c63430008030033",
  "immutableReferences": {},
  "source": "// SPDX-License-Identifier: GPL-3.0\npragma solidity >=0.8.0 <0.9.0;\n\nimport \"./CoinvestingDeFiToken.sol\";\nimport \"./utils/Ownable.sol\";\n\ncontract MultiSigWallet is Ownable{\n    // Types\n    enum Authorization {\n        NONE,\n        OWNER,\n        DEACTIVATED\n    }\n\n    struct Transaction {\n        uint id; \n        uint amount;\n        address payable to;\n        address tokenContract;\n        address createdBy;\n        uint signatureCount;\n        bool completed;\n    }\n\n    // Public variables\n    CoinvestingDeFiToken public tokenContract;\n    uint public constant quorum = 2;\n\n    // Internal variables\n    bool internal contractSeted = false;\n\n    // Private variables\n    uint private nextTransactionId;\n    uint[] private _pendingTransactions;\n    uint[] private completed;\n    address private _admin;\n\n    // Mappings\n    mapping(address => Authorization) private owners;\n    mapping(uint => Transaction) transactions;\n    mapping(uint => mapping(address => bool)) signatures;\n\n    // Modifiers\n    modifier canContractSet() {\n        require(!contractSeted, \"Set contract token is not allowed!\");\n        _;\n    }\n\n    modifier isValidOwner() {\n        require(owners[msg.sender] == Authorization.OWNER,\n        \"You must have owner authorization to create transaction!\");\n        _;\n    }\n\n    // Events\n    event TransactionCreated(uint nextTransactionId, address createdBy, address to,  uint amount);\n    event TransactionCompleted(uint transactionId, address to, uint amount, address createdBy, address executedBy);\n    event TransactionSigned(uint transactionId, address signer);\n    event NewOwnerAdded(address newOwner);\n    event FundsDeposited(address from, uint amount);\n\n    // Constructor\n    constructor() payable {\n        _admin = msg.sender;\n        owners[msg.sender] = Authorization.OWNER;\n    }\n\n    // Receive function\n    receive() external payable{\n        emit FundsDeposited(msg.sender, msg.value);\n    }\n\n    // External functions\n    function activateOwner(address addr) external onlyOwner {\n        require(addr != address(0), \"Invalid address!\");\n        owners[addr] = Authorization.OWNER;\n    }\n\n    function addOwner(address newOwner) external onlyOwner {\n        require(newOwner != address(0), \"Invalid address!\");\n        require(owners[newOwner] == Authorization.NONE, \"Address already an owner!\");\n        owners[newOwner] = Authorization.OWNER;\n        emit NewOwnerAdded(newOwner);\n    }\n\n    function createTransfer(uint amount, address payable to) external isValidOwner {\n        nextTransactionId++;  \n         \n        transactions[nextTransactionId]= Transaction({\n            id:nextTransactionId,\n            amount: amount,\n            to: to,\n            tokenContract: address(tokenContract),\n            createdBy: msg.sender,\n            signatureCount: 0,\n            completed: false\n        });\n\n        _pendingTransactions.push(nextTransactionId);\n        emit TransactionCreated(nextTransactionId, msg.sender, to, amount);\n    }\n\n    function deactivateOwner(address addr) external onlyOwner {\n        require(addr != address(0), \"Invalid address!\");\n        owners[addr] = Authorization.DEACTIVATED;\n    }\n\n    function executeTransaction(uint id) external isValidOwner {\n        require(transactions[id].to != address(0),\n        \"Transaction does not exist!\");\n        require(transactions[id].completed == false,\n        \"Transactions has already been completed!\");\n        require(transactions[id].signatureCount >= quorum,\n        \"Transaction requires more signatures!\");\n        require(tokenContract.balanceOf(address(this)) >= transactions[id].amount,\n        \"Insufficient balance.\");\n\n        transactions[id].completed = true;\n        address payable to = transactions[id].to;\n        uint amount = transactions[id].amount;\n        tokenContract.transfer(to, amount);\n        completed.push(id);\n        emit TransactionCompleted(id, to, amount, transactions[id].createdBy, msg.sender);\n    }\n         \n    function setTokenContract(CoinvestingDeFiToken _tokenContract) external onlyOwner canContractSet {\n        tokenContract = _tokenContract;\n        contractSeted = true;\n    }\n\n    function signTransation(uint id) external isValidOwner {\n        require(transactions[id].to != address(0),\n        \"Transaction does not exist!\");\n        require(transactions[id].createdBy != msg.sender,\n        \"Transaction creator cannot sign transaction!\");\n        require(signatures[id][msg.sender] == false,\n        \"Cannot sign transaction more than once!\");\n        \n        Transaction storage transaction = transactions[id];\n        signatures[id][msg.sender] = true;\n        transaction.signatureCount++; \n        emit TransactionSigned(id, msg.sender);\n    }\n\n    function withdraw() external onlyOwner {\n        require(address(this).balance > 0, \"Insuficient funds!\");\n        uint amount = address(this).balance;\n        // sending to prevent re-entrancy attacks\n        address(this).balance - amount;\n        payable(msg.sender).transfer(amount);\n    }\n\n    // External functions that are view\n    function getBalance() external view returns(uint) {\n        return address(this).balance;\n    }\n\n    function getPendingTransactions() external view returns(uint[] memory){\n        return _pendingTransactions;\n    }\n\n    function getCompletedTransactions() public view returns(uint[] memory){\n        return completed;\n    }\n\n    function getTokenBalance() external view returns(uint) {\n        return tokenContract.balanceOf(address(this));\n    }\n\n    function getTransactionSignatureCount(uint transactionId) external view returns(uint) {\n        require(transactions[transactionId].to != address(0),\n        \"Transaction does not exist!\");\n        return transactions[transactionId].signatureCount;\n    }\n}\n",
  "sourcePath": "/home/dev/Playground/DeFi/coinvesting-defi-token-core/contracts/MultiSigWallet.sol",
  "compiler": {
    "name": "solc",
    "version": "0.8.3+commit.8d00100c.Emscripten.clang"
  },
  "schemaVersion": "3.3.4",
  "updatedAt": "2021-04-17T00:28:18.271Z",
  "networkType": "ethereum",
  "devdoc": {
    "kind": "dev",
    "methods": {
      "owner()": {
        "details": "Returns the address of the current owner."
      },
      "renounceOwnership()": {
        "details": "Leaves the contract without owner. It will not be possible to call `onlyOwner` functions anymore. Can only be called by the current owner. NOTE: Renouncing ownership will leave the contract without an owner, thereby removing any functionality that is only available to the owner."
      },
      "transferOwnership(address)": {
        "details": "Transfers ownership of the contract to a new account (`newOwner`). Can only be called by the current owner."
      }
    },
    "version": 1
  },
  "userdoc": {
    "kind": "user",
    "methods": {},
    "version": 1
  },
  "db": {
    "callBytecode": {
      "id": "0xc5941f640db4a4e2cf166ed0570d4f81fd51386fe376b30db85ef4259b902bd5"
    },
    "createBytecode": {
      "id": "0x7cb25efe351a5331d6006761819f8e14eaa1f2894c39e647f338cf8c9875ab31"
    },
    "contract": {
      "id": "0xda2194bed3417f7c8e253fdcbe56c459ee6c12824cc01a19d653d00002a9a14a"
    }
  }
}